:10061E00002078204920492049FC79204A20482092
:10062E00482079FC48204820482048204BFE98005E
:10063E0000407C404440548054FE550856885488EF
:10064E005488545054501020285024884504820257
:10065E0000003FF00410042004200440047C040435
:10066E000804080408041004100420044028801014
:10067E00002000F01F00100010001FF810801080E6
:10068E0010801080FFFE000008401020201040084F
:10069E00020001007FFE400280047FFC02000D0874
:1006AE00719002A00CC071A006981886E28001001D
:1006BE000100111009207FFE40029FF410101FF060
:1006CE0001003FF821082108212821100100010016
:1006DE0001000100FFFE01003FF821083FF8010074
:1006EE003FF80108FFFE01083FF801000500020077
:1006FE0001000100010001000100FFFE01000100E8
:10070E000280028004400440082010102008C00619
:10071E0008400840084017FC104032483150504005
:10072E009FFE10A010A01110111012081404180230
:10073E000040404027FC204003F80040E7FE200028
:10074E0023F8220823F822082BF832082228021058
:10075E00001000F83F000100FFFE01001FF0111015
:10076E001FF011101FF001003FF80100FFFE000006
:10077E00100008047F78004022401440FF7E084895
:10078E0008487F4808482A48494888882888110818
:10079E000100010001007FFC010011100910092069
:1007AE00FFFE0380054009203118C106010001003B
:1007BE0000102010101017FE00100010F210111073
:1007CE0011101010101010501020280047FE0000BD
:1007DE0002000100FFFE044014502448444400006F
:1007EE003FF0082004400280010006C01830E00EE1
:1007FE00010001007FFC0100028004400A20311834
:10080E00C0060100088848844812481287F000008C
:10081E0000007FFC4104410441045FF44104438421
:10082E004344452449145114410441047FFC4004BF
:10083E0000A00090FC8005FE05104B102DFC291029
:10084E00111011FC29102510451081FE0100010028
:10085E0020403F7E4890850810000BF8200827C8DE
:10086E002448244827C82448244827C8200820188C
:10087E001010082004403FF8210821083FF82108F5
:10088E0021083FF801000100FFFE010001000100F8
:10089E0000000000000000000004000800102020EE
:1008AE00104008800500020000000000000000005B
:1008BE000000000000000000008000600038FFFE15
:1008CE000038006000800000000000000000000002
:1008DE0000003FF002000200020002007FFC0480D4
:1008EE00048004800880088010842084407C80006E
:1008FE001020102010201120112CFD34116413A48F
:10090E001124113411281D22E122410200FE0000A3
:10091E0000007FFC4204420447E44C4452844104EC
:10092E0046C4783C43044084460441847FFC400422
:10093E001020102010201120112CFD34116413A44E
:10094E001124113411281D22E122410200FE000063
:10095E0000007FFC4204420447E44C4452844104AC
:10096E0046C4783C43044084460441847FFC4004E2
:10097E00010001007FFC01001FF000007FFE40021D
:10098E009FF400001FF010101FF008200440FFFE1F
:10099E0000007FFC08200820082008200820FFFE09
:1009AE000820082008200820102010202020402099
:1009BE001020102010201040FC48248425FE248294
:1009CE00240048FC288410842884448480FC0084FD
:1009DE0002102110111017BE8220424043BC128417
:1009EE0012882288E2BE22882488248829A8101022
:1009FE000020002800247E240220023E25E014243C
:100A0E0008240828142812102232404A00860102B7
:100A1E0000402240124013F804400040F7FC112021
:100A2E001120112012241224141C280047FE00004D
:100A3E00200027F822082110F0A0204021B0264ED9
:100A4E003040E3F82040204027FC2040A0404040AA
:100A5E001020102010201120112CFD34116413A42D
:100A6E001124113411281D22E122410200FE000042
:100A7E0000007FFC4204420447E44C44528441048B
:100A8E0046C4783C43044084460441847FFC4004C1
:100A9E0000402240124013F804400040F7FC1120A1
:100AAE001120112012241224141C280047FE0000CD
:100ABE00200027F822082110F0A0204021B0264E59
:100ACE003040E3F82040204027FC2040A04040402A
:100ADE0000A00090FC8005FE05104B102DFC291087
:100AEE00111011FC29102510451081FE0100010086
:100AFE00010000803FFE222022203FFC22202220E7
:100B0E0023E020002FF02410422041C08630380E02
:100B1E0002010300000204000100080000000000B2
:100B2E000505040104040501050706010604070175
:100B3E000A090802080A090209080A0280000000D0
:100B4E00E000F000F800FC00FE00FF00FF80FFC098
:0C0B5E00FFE0FFF0FFF8FFFCFFFEFFFFD0
:101DFF00121D26121D56E4F508AF081217EF12191F
:031E0F009B80FBBA
:1017EF00EFB40B0040030218819017FFF8282873FD
:1017FF000218200218220218290218300218460275
:10180F00185202188102188102185E02186A021813
:10181F0076801912169F7F01801712169F7F028004
:10182F0010120B6AE551B4010BE4F50812169FE490
:10183F00FF02174E021A1D121882E4FF1215DDE483
:10184F00F522221218827F011215DD752201221254
:10185F001518E4FF1215DDE4F521221215187F018A
:10186F001215DD752101221215187F021215DD7573
:03187F0021022221
:10169F00121D56E4F56BF56CC3E56C9404E56B9481
:1016AF00005022AF6CC007E56CAE6B7805C333CE2C
:1016BF0033CED8F9249EF58274093EAB82FAD00757
:1016CF00E4FD121B6AC3E56C9404E56B9400502291
:1016DF00AF6CC007E56CAE6B7805C333CE33CED895
:1016EF00F9241EF582740A3EAB82FAD0077D1012E0
:1016FF001B6AC3E56C9408E56B9400402DD3E56C31
:10170F00940BE56B94005022AF6CC007E56CAE6B89
:10171F007805C333CE33CED8F9249EF58274093EB3
:10172F00AB82FAD007E4FD121B6A056CE56C700200
:0E173F00056BC39410E56B940050030216A7CF
:01174D002279
:10188200121D56E4F56BF56CC3E56C9401E56B949F
:1018920000402DD3E56C9403E56B94005022AF6CAD
:1018A200C007E56CAE6B7805C333CE33CED8F924CE
:1018B200BEF58274083EAB82FAD007E4FD121B6AC1
:1018C200C3E56C9401E56B9400402DD3E56C940361
:1018D200E56B94005022AF6CC007E56CAE6B7805E7
:1018E200C333CE33CED8F9241EF58274093EAB82BF
:1018F200FAD0077D10121B6A056CE56C7002056B4D
:0C190200C39410E56B9400500302188A97
:01190E0022B6
:10151800121D56E4F56BF56CC3E56C9402E56B940B
:1015280000402DD3E56C9403E56B94005022AF6C1A
:10153800C007E56CAE6B7805C333CE33CED8F9243B
:101548009EF58274073EAB82FAD007E4FD121B6A4F
:10155800C3E56C9402E56B9400402DD3E56C9403CD
:10156800E56B94005022AF6CC007E56CAE6B780554
:10157800C333CE33CED8F924DEF58274073EAB826E
:10158800FAD0077D10121B6AC3E56C940AE56B94C8
:1015980000402DD3E56C940BE56B94005022AF6CA2
:1015A800C007E56CAE6B7805C333CE33CED8F924CB
:1015B8001EF58274073EAB82FAD007E4FD121B6A5F
:1015C800056CE56C7002056BC39410E56B940050D4
:0415D80003021520D5
:0115DC0022EC
:1015DD00EF14600F14601414601624037018E4F5F2
:1015ED00708003757010756F04800BE4F5708003C7
:1015FD00757010756F0CE56F24FCFF7A087BBEAD1E
:10160D0070121B6AE4F56B7F147E00121DADE56B45
:10161D0025E0244AF582E4340BF583E493FC740150
:10162D0093FDECF56D8D6E85706CE570240FFFE408
:10163D0033FED3E56C9FEE6480F87480985046AD10
:10164D006CAF6F12000BC3E56C957025E0249EF511
:10165D0082E43408F583E493556DFF121DD9C3E57B
:10166D006C9570FFE49400FE90089F75F002EF12E8
:10167D0011AEEE25E02583F583E493556EFF121D23
:10168D00D9056C80A5056BE56BD3940F500302163D
:01169D001438
:01169E002229
:10174E00EF1460111460161460182403701AE4F577
:10175E0070F56F8013757001E4F56F800BE4F57012
:10176E008003757001756F01E570C454F0F56DE579
:10177E007075F010A4240FFFE435F0FED3E56D9FD5
:10178E00EE6480F87480985057E56F75F008A4F5F4
:10179E006EE56F75F008A42407FFE435F0FED3E57F
:1017AE006E9FEE6480F87480985031AD6DAF6E12FE
:1017BE00000B121E378F6B121E378F6B121E378F58
:1017CE006C636BFF636CFFAD6DAF6E12000BAF6B96
:1017DE00121DD9AF6C121DD9056E80B5056D808FA7
:0117EE0022D8
:101A1D00121D56E4F56BF56CC3E56C9407E56B94FC
:101A2D00005022AF6CC007E56CAE6B7805C333CEAA
:101A3D0033CED8F9241EF58274063EAB82FAD00758
:101A4D007D10121B6AC3E56C9409E56B9400402D63
:101A5D00D3E56C940FE56B94005022AF6CC007E595
:101A6D006CAE6B7805C333CE33CED8F924DEF58258
:101A7D0074053EAB82FAD007E4FD121B6A056CE5D6
:0E1A8D006C7002056BC39410E56B9400408AE8
:011A9B002228
:10199B00E5A054FE64FE60797F0A7E00121DADE562
:1019AB00A054FE64FE606AE5A054FE2442602A2423
:1019BB00E0603524E4601324FE7044E50825E0253F
:1019CB00E02420F582E4340B802BE50825E025E0AC
:1019DB002421F582E4340B801CE50825E025E02466
:1019EB001EF582E4340B800DE50825E025E0241F6D
:1019FB00F582E4340BF583E493F508FF1217EFE55A
:101A0B00A054FEFFBFFEF875A0FF7F0A7E00121DDB
:011A1B00AD1D
:011A1C0022A7
:101DEB007590FFC2B2D2B3D2B4AF90C2B4EF3392FC
:031DFB0000A20043
:011DFE0022C2
:101D2600D2B57F30121E25121DA97F34121E251230
:101D36001DA97F0C121E25121DA97F01121E257FCB
:101D46000A7E00121DAD7F34121E257F36021E2527
:101D5600E4F577E4F578AD77AF7812000BE4FF127F
:101D66001DD9E4FF121DD90578E578C3941040E625
:091D76000577E577C3942040DAFB
:011D7F002241
:101E2500AE07121DEB40FBC2B2C2B38E90D2B4C254
:021E3500B422D5
:0E1DCB00FEE5792FF582E5783EF583E493FF7F
:101DD900AE07121DEB40FBD2B2C2B38E90D2B4C291
:021DE900B42222
:0F1E3700121DEB40FBD2B2D2B3D2B4AF90C2B403
:011E46002279
:041DA9007F017E0038
:101DAD00D3EF9400EE940040147D6E7C00ED1D7019
:0D1DBD00011CED4C70F7EF1F70E61E80E377
:011DCA0022F6
:08000300A905E4FCFBFAAD01C4
:10000B00AC07ED2480FF121E25EC2480FF021E2579
:081B6A008F778A788B79A905B9
:101B7200AB01E9240FFFE433FEEBD39FEE6480F860
:101B82007480985037AD03AF7712000BE9FFEBC3B7
:101B92009FFFE49400FEEF25E0FFEE33121DCBE938
:101BA200FFEBC39FFFE49400FEEF25E0FFEE33FE60
:0C1BB200EF2401FFE43E121DCB0B80B6B7
:011BBE002204
:081C0E008F778A788B79A90514
:101C1600AB01E9240FFFE433FEEBD39FEE6480F8BB
:101C2600748098501EAD03AF7712000BE9FFEBC32B
:101C36009FFFE49400FEE5792FF582E578121DD327
:031C46000B80CF41
:011C49002278
:041D80008A738B7463
:101D8400E4FBFAF58212000B121E37AB07121E3762
:101D9400AB07121E378F82EBFEE582FFE573520616
:041DA400E574520789
:011DA8002218
:061CBC008F738A748B7522
:101CC200120003121E377C00AD07121E37AD071239
:101CD2001E37AB07EDFEEBAA062575FBE5743AFA53
:101CE200AD01AF7312000BAF02121DD9AF03021D7B
:011CF200D918
:061C84008F738A748B755A
:101C8A00120003121E377C00AD07121E37AD071271
:101C9A001E37AB07EDFEEBAA06C39575FBEA9574F2
:101CAA00FAAD01AF7312000BAF02121DD9AF0302D6
:021CBA001DD932
:10001E0002000100FFFE0440145024484444000036
:10002E003FF0082004400280010006C01830E00EA8
:10003E00010001007FFC0100028004400A203118FB
:10004E00C0060100088848844812481287F0000054
:10005E0000007FFC4104410441045FF441044384E9
:10006E004344452449145114410441047FFC400487
:10007E0000A00090FC8005FE05104B102DFC2910F1
:10008E00111011FC29102510451081FE01000100F0
:10009E0020403F7E4890850810000BF8200827C8A6
:1000AE002448244827C82448244827C82008201854
:1000BE001010082004403FF8210821083FF82108BD
:1000CE0021083FF801000100FFFE010001000100C0
:1000DE00100013FC208420884888F890109C2084FF
:1000EE004144F944412801281A10E228444401826F
:1000FE0000047F044104412441247F241024102451
:10010E00FF24112411241124210421044A148408EB
:10011E00000000182442424242424242241800008B
:10012E00000000107010101010101010107C000045
:10013E000000003C4242420404081020427E0000AF
:10014E000000003C424204180402024244380000FF
:10015E00000000040C14242444447E04041E0000F9
:10016E000000007E404040586402024244380000C5
:10017E000000001C244040586442424224180000F3
:10018E000000007E444408081010101010100000EB
:10019E000000003C4242422418244242423C0000ED
:1001AE000000001824424242261A0202243800009F
:1001BE0008000BF8120823F84A080BF8100033FC5D
:1001CE00501097FE10101210111010101050102019
:1001DE0000400440042008201010200840049FE234
:1001EE0004200420042008200820102021404080F4
:1001FE00FFFFFFFFFFFFFFFF800000000000000178
:10020E0080000000000000018000000000000001DE
:10021E0080000000000000018000000000000001CE
:10022E0080000000000000018000000000000001BE
:10023E0080000000000000018000000000000001AE
:10024E00800000000000000180000000000000019E
:10025E00800000000000000180000000000000018E
:10026E00800000000000000180000000000000017E
:10027E00800000000000000180000000000000016E
:10028E00800000000000000180000000000000015E
:10029E00800000000000000180000000000000014E
:1002AE00800000000000000180000000000000013E
:1002BE00800000000000000180000000000000012E
:1002CE00800000000000000180000000000000011E
:1002DE00800000000000000180000000000000010E
:1002EE0080000000000000018000000000000001FE
:1002FE0080000000000000018000000000000001EE
:10030E0080000000000000018000000000000001DD
:10031E0080000000000000018000000000000001CD
:10032E0080000000000000018000000000000001BD
:10033E0080000000000000018000000000000001AD
:10034E00800000000000000180000000000000019D
:10035E00800000000000000180000000000000018D
:10036E00800000000000000180000000000000017D
:10037E00800000000000000180000000000000016D
:10038E00800000000000000180000000000000015D
:10039E00800000000000000180000000000000014D
:1003AE00800000000000000180000000000000013D
:1003BE00800000000000000180000000000000012D
:1003CE00800000000000000180000000000000011D
:1003DE00800000000000000180000000000000010D
:1003EE008000000000000001FFFFFFFFFFFFFFFF86
:1003FE00FFFFFF0000FFFFFF800000000000000174
:10040E0080000000000000018000000000000001DC
:10041E0080000000000000018000000000000001CC
:10042E0080000000000000018000000000000001BC
:10043E0080003FFFFFFC0001800000000000000173
:10044E00800000000000000180000000000000019C
:10045E00800000000000000180000000000000018C
:10046E00800000000000000180000000000000017C
:10047E00800000000000000180007F0000FE0001EF
:10048E0080804000000201018080400000020101D6
:10049E0080804000000201018080400100020101C5
:1004AE0080804001000201018080400100020101B4
:1004BE00008000010000010000800001000001002A
:1004CE00008000010000010000800001000001001A
:1004DE00008000010000010000800001000001000A
:1004EE000080000100000100008000FFFE000100FE
:1004FE0000800001000001000080000100000100EA
:10050E0000800001000001000080000100000100D9
:10051E0000800001000001000080000100000100C9
:10052E0000800001000001000080000100000100B9
:10053E008080400100020101808040000002010124
:10054E008080400000020101808040000002010115
:10055E008080400000020101808040000002010105
:10056E0080007F0000FE00018000000000000001FE
:10057E00800000000000000180000000000000016B
:10058E00800000000000000180000000000000015B
:10059E00800000000000000180000000000000014B
:1005AE00800000000000000180003FFFFFFC000102
:1005BE00800000000000000180000000000000012B
:1005CE00800000000000000180000000000000011B
:1005DE00800000000000000180000000000000010B
:1005EE008000000000000001FFFFFF0000FFFFFF82
:1005FE0001020408102040800000000000000000EE
:10060E000001020308090A0B0001020308090A0B84
:031E570001210264
:100B6A00E4F551F552F561F55FF560755E01AF2266
:100B7A00FE1211D0121C4A121E47121E12121CF328
:100B8A00AB4FAA4EAD4DAF4C121D808E708F71E5E2
:100B9A0071654F7004E570654E60E2AB4FAA4EADC9
:100BAA004DAF4C121CBC7B007A007923121BBFE5A7
:100BBA005164017003020F4EE55264017003020F83
:100BCA004ED2ABE4F55DE55E60FCE52114600B14E2
:100BDA00600C2402700F7F3280067F6480027F9649
:100BEA007E00121DADC2ABE55C14604E1460731436
:100BFA007003020CA824036003020CD285596CE529
:100C0A005B6401455A7022E558B40305E4F56B802C
:100C1A000FE558B40B05756B088005E55804F56BAC
:100C2A00756D80756E00020CD285586BE55AC31338
:100C3A00F56DE55B13F56E020CD2855A6D855B6E18
:100C4A00E559B41F18E558D39403E558500624080B
:100C5A00F56B800424F8F56BE4F56C806BE55904B8
:100C6A00806185596CE4B55B25E55AB48020E55866
:100C7A007005756B03800FE558B40805756B0B801A
:100C8A0005E55814F56B756D00756E01803A855847
:100C9A006BE55B25E0F56EE55A33F56D802A855ADA
:100CAA006D855B6EE5597018E558D39403E5585085
:100CBA00062408F56B800424F8F56B756C1F800810
:100CCA00E55914F56C85586BE4F572AB6EAA6DADF7
:100CDA006CAF6B121D808E708F71E571656E70043A
:100CEA00E570656D6003020DEFE56B654C6003020C
:100CFA000DEAE56C654D6003020DEAE56E654F701D
:100D0A0004E56D654E6003020DEA7572010560E542
:100D1A00607002055FAE5FFF7C007D6412105DEFBC
:100D2A00C4F8540FC868FFEEC454F048FE741E2F6E
:100D3A00F58274013EAB82FA7D107F05121C0EAE5D
:100D4A005FAF607C007D6412105D7E007F0ACFCDAC
:100D5A00CFCECCCE12105DEFC4F8540FC868FFEEA8
:100D6A00C454F048FE741E2FF58274013EAB82FA19
:100D7A007D107F06121C0EAE5FAF607C007D0A12EA
:100D8A00105DEDC4F8540FC868FFECC454F048FE77
:100D9A00741E2FF58274013EAB82FA7D107F071212
:100DAA001C0E855C5078587C007D007B007A0079A7
:100DBA004C7E007F05121025121CF3AB4FAA4EADD4
:100DCA004DAF4C121D808E708F71E571654F7004A6
:100DDA00E570654E60E2AB4FAA4EAD4DAF4C802335
:100DEA007552018021855C6F78587C007D007B00FC
:100DFA007A00796B7E007F05121025AB5BAA5AAD8B
:100E0A0059AF58121CBCE57264017003020BB9AFEA
:100E1A0024EF75F005A42429F8E66553703AEF75B6
:100E2A00F005A4242AF8E66554702DEF75F005A4A0
:100E3A00242BF8E6FE08E6B5561EE555B506197BDD
:100E4A00007A007923121A9C786B7C007D007E0060
:100E5A007F05121025856F57E55714605014607985
:100E6A00147003020F2324036003020BB9AB56AAC2
:100E7A0055AD54AF53121C84E55664014555701F95
:100E8A00E553B40305E4F553800CE553B40B05753B
:100E9A00530880020553755580755600020BB9E553
:100EAA0055C313F555E55613F556020BB9AB56AAB9
:100EBA0055AD54AF53121C84E554B41F17E553D3F0
:100ECA00940350047408800274F82553F553E4F52A
:100EDA0054020BB90554020BB9AB56AA55AD54AF1F
:100EEA0053121C84E4B55623E555B4801EE55370AD
:100EFA0005755303800CE553B4080575530B80023E
:100F0A001553755500755601020BB9E55625E0F5DE
:100F1A0056E55533F555020BB9AB56AA55AD54AF44
:100F2A0053121C84E5547017E553D3940350047488
:100F3A0008800274F82553F55375541F020BB9152E
:0A0F4A0054020BB9C28CC28EC2AB78
:010F5400227A
:03001B000213F2DB
:1013F200C0E0C0F0C083C082C0D075D000C000C0C1
:0D14020001C002C003C004C005C006C00741
:10140F00C28E758DDC758B00E56114601E14700340
:10141F000214EB240260030214FBE5A054FE64FEE9
:10142F0060067561010214FB0214F3E5A054FE641B
:10143F00FE70030214E9756102E55D60030214EBAF
:10144F00855C62E55E640160030214DCE5A054FE76
:10145F002482602824C0601524E0601B24F06012F1
:10146F0024F8601D24FC70257551018020755C03E4
:10147F00801B755C028016755C018011755C0080A5
:10148F000CE55E7005755E018003755E00E55C65B9
:10149F00626014E55C2562FFE433FEEF64024E6088
:1014AF0006EF64044E700585625C803078667C00C0
:1014BF007D007B007A0079587E007F051210257B16
:1014CF00007A007923121B09755D01800FE5A05486
:1014DF00FEFFBFF607755E0180028008E5A054FE8F
:0E14EF00FFBFFE057561008003756102D28E9D
:1014FD00D007D006D005D004D003D002D001D00043
:0B150D00D0D0D082D083D0F0D0E032EC
:0411D0008E738F7417
:1011D400121D56E4F575E4F576AD75AF7612000B85
:1011E400E57675F002A4FDACF0E57575F008A42D64
:1011F400FDE5F03CFCE5747F0025E0FEEF24FEF500
:101204008274013EF583E5822DF582E5833CF58306
:10121400E493FF121DD9E57675F002A4FDACF0E568
:101224007575F008A42DFDE5F03CFCE5747F002500
:10123400E0FEEF24FFF58274013EF583E5822DF58F
:1012440082E5833CF583E493FF121DD90576E576A8
:10125400D3940340840575E575D3941F500302119C
:10126400DAE4F575757608AD75AF7612000BE576A0
:1012740075F002A4FDACF0E57575F008A42DFDE54C
:10128400F03CFCE5747F0025E0FEEF24EEF582746B
:10129400023EF583E5822DF582E5833CF583E493F4
:1012A400FF121DD9E57675F002A4FDACF0E5757565
:1012B400F008A42DFDE5F03CFCE5747F0025E0FE7C
:1012C400EF24EFF58274023EF583E5822DF582E585
:1012D400833CF583E493FF121DD90576E576D39418
:1012E4000B40840575E575D3941F50030212687A88
:1012F400017BBEE4FD7F04121B6A7A017BDEE4FD00
:101304007F05121B6AAE5FAF607C007D6412105DC6
:10131400EFC4F8540FC868FFEEC454F048FE741EBE
:101324002FF58274013EAB82FA7D107F05121C0EEC
:10133400AE5FAF607C007D6412105D7E007F0ACFDB
:10134400CDCFCECCCE12105DEFC4F8540FC868FFD9
:10135400EEC454F048FE741E2FF58274013EAB8235
:10136400FA7D107F06121C0EAE5FAF607C007D0A12
:1013740012105DEDC4F8540FC868FFECC454F04873
:10138400FE741E2FF58274013EAB82FA7D107F0736
:10139400121C0E7A007BDEE4FD7F0C121B6A7A00BD
:1013A4007BFEE4FD7F0D121B6AE5211460181460B6
:1013B40026240270387A007B1E7D107F0E121B6A71
:1013C4007A007B3E80207A007B5E7D107F0E121BAC
:1013D4006A7A007B7E800F7A007B9E7D107F0E12DE
:0D13E4001B6A7A007BBE7D107F0F121B6A12
:0113F10022D9
:101E4700E58954F04401F589E4F58CF58AD28C22B2
:101E1200D2AFE589540F4410F589758DDCE4F58B5A
:031E2200D28E223B
:101BBF00900002E4F5F0121181E4F5F01211629039
:101BCF000004E4F5F0121181E4F573F574F575F581
:101BDF0076F577F578F579E57975F005A42429F987
:101BEF00E4A801FCFDFB7A007973FE7F0512102536
:0E1BFF000579E579700205786407457870D99C
:011C0D0022B4
:101B09008B638A6489659000021210DDFFAEF07C58
:101B1900007D0512104BE92406F9E43AFAE92FF998
:101B2900EA3EA801FCAD037B007A0079667E007F5E
:101B390005121025AB63AA64A9659000021210DD95
:101B49002401FFE435F0FE7C007D0712105D900052
:101B590002EC8DF0121181900004E475F00102117C
:011B69001566
:061A9C008B738A7489754A
:101AA200E92406F9E43AFAC002C001AA74A975123F
:101AB20010B2FFAEF07C007D0512104BD001D002B7
:101AC200E92FF9EA3EFA78767C007D007E007F05F8
:101AD200121025AB73AA74A9751210B22401FFE487
:101AE20035F0FE7C007D0712105DEC8DF012116264
:101AF200AB73AA74A97590000474FFF5F012111566
:061B02007B007A007976F9
:011B080022BA
:101C4A00E4F558755905F55A755B01F55CF5537558
:101C5A005405F555755680F5577D05FF12000B1290
:101C6A001E378F73121E378F737D05E4FF12000B28
:0A1C7A00AF73121DD97FFF021DD9C0
:101CF300E58A540F90060E93F54CE58A54F0FFE500
:101D03008A540F2FFFE433FEEF7805CEA2E713CEFC
:101D130013D8F8F54DE58A540F9005FE93754E00E0
:021D2300F54F7A
:011D2500229B
:0300000002190FD3
:0C190F00787FE4F6D8FD75817A02195645
:100F5500E709F608DFFA8046E709F208DFFA803E7E
:100F650088828C83E709F0A3DFFA8032E309F6086B
:100F7500DFFA8078E309F208DFFA807088828C83D3
:100F8500E309F0A3DFFA806489828A83E0A3F60887
:100F9500DFFA805889828A83E0A3F208DFFA804C61
:100FA50080D280FA80C680D4806980F28033801038
:100FB50080A680EA809A80A880DA80E280CA8033A1
:100FC50089828A83ECFAE493A3C8C582C8CCC58319
:100FD500CCF0A3C8C582C8CCC583CCDFE9DEE780E9
:100FE5000D89828A83E493A3F608DFF9ECFAA9F068
:100FF500EDFB2289828A83ECFAE0A3C8C582C8CCBE
:10100500C583CCF0A3C8C582C8CCC583CCDFEADED6
:10101500E880DB89828A83E493A3F208DFF980CC38
:1010250088F0EF60010E4E60C388F0ED2402B40431
:101035000050B9F582EB2402B4040050AF232345D8
:061045008223900FA57349
:10104B00EF8DF0A4A8F0CF8CF0A428CE8DF0A42EB9
:02105B00FE2273
:10105D00BC000BBE0029EF8DF084FFADF022E4CC77
:10106D00F875F008EF2FFFEE33FEEC33FCEE9DEC40
:10107D00984005FCEE9DFE0FD5F0E9E4CEFD22ED86
:10108D00F8F5F0EE8420D21CFEADF075F008EF2FD0
:10109D00FFED33FD4007985006D5F0F222C398FDC1
:0510AD000FD5F0EA225E
:1010B200BB010A89828A83E0F5F0A3E02250068709
:1010C200F009E71922BBFE07E3F5F009E3192289CB
:0B10D200828A83E493F5F074019322FE
:1010DD00BB0110E58229F582E5833AF583E0F5F051
:1010ED00A3E0225009E92582F886F008E622BBFE2E
:1010FD000AE92582F8E2F5F008E222E5832AF58374
:08110D00E993F5F0A3E9932238
:10111500BB010DC58229C582C5833AC5830211BAB3
:101125005011C58229F808E5F026F618F5F0E58294
:1011350036F622BBFE11C58229F808E225F0F5F046
:10114500F218E23582F222F8E58229F582E5832A52
:0D115500F58374019325F0F5F0E493382242
:10116200BB010A89828A83F0E5F0A3F0225006F7D8
:0F11720009A7F01922BBFE06F3E5F009F31922D5
:10118100F8BB0111E58229F582E5833AF583E8F0A0
:10119100E5F0A3F0225009E92582C8F608A6F0225D
:0D11A100BBFE09E92582C8F2E5F008F22244
:0C11AE00A42582F582E5F03583F583224C
:10191B00021DFFE493A3F8E493A34003F68001F2C6
:10192B0008DFF48029E493A3F85407240CC8C333CD
:10193B00C4540F4420C8834004F456800146F6DF9C
:10194B00E4800B0102040810204080901E57E47EB7
:10195B00019360BCA3FF543F30E509541FFEE49391
:10196B00A360010ECF54C025E060A840B8E493A358
:10197B00FAE493A3F8E493A3C8C582C8CAC583CA83
:10198B00F0A3C8C582C8CAC583CADFE9DEE780BE3B
:011E5A000087
:1011BA00C5F0F8A3E028F0C5F0F8E58215827002C0
:0611CA001583E038F0225D
:00000001FF
